:100000000C943E000C945B000C945B000C945B0021
:100010000C945B000C945B000C945B000C945B00F4
:100020000C945B000C945B000C945B000C945B00E4
:100030000C945B000C945B000C945B000C945B00D4
:100040000C945B000C945B000C945B000C945B00C4
:100050000C945B000C945B000C945B000C945B00B4
:100060000C945B000C945B000C945B000C945B00A4
:100070000C945B000C945B000C945B0011241FBE7D
:10008000CFEFD8E0DEBFCDBF11E0A0E0B1E0EEE6FB
:10009000F1E002C005900D92A030B107D9F721E040
:1000A000A0E0B1E001C01D92A130B207E1F70E94CB
:1000B0005D000C94B5000C9400000E9461000E9449
:1000C000B0000F931F938FB7F89490910001903078
:1000D00009F038C091E0909300018FBF1098089A02
:1000E0001198099A52985A9800E010E02AEF3FE1DF
:1000F0004CE15EE069B1F801D801C9010197F1F75F
:1001000071E0E030F105A007B10709F0712D7170C1
:10011000EF5FFF4FAF4FBF4F703079F7CA010197C4
:10012000F1F789B16823647072B1603029F07160B1
:1001300072B962B16D7F04C07E7F72B962B16260D4
:1001400062B9D8CF8FBF0E94A7000E94B0000E9462
:10015000AB000E94B0000E94AF000E94B000FFCF31
:0E01600081E090E0F8940C94B500F894FFCF85
:00000001FF
