:100000000C943E000C945B000C945B000C945B0021
:100010000C945B000C945B000C945B000C945B00F4
:100020000C945B000C945B000C945B000C945B00E4
:100030000C945B000C945B000C945B000C945B00D4
:100040000C945B000C945B000C945B000C945B00C4
:100050000C945B000C945B000C945B000C945B00B4
:100060000C945B000C945B000C945B000C945B00A4
:100070000C945B000C945B000C945B0011241FBE7D
:10008000CFEFD8E0DEBFCDBF11E0A0E0B1E0EAE104
:10009000F1E002C005900D92A030B107D9F721E040
:1000A000A0E0B1E001C01D92A130B207E1F70E94CB
:1000B0005D000C948B000C9400000E9461000E9473
:1000C00086008FB7F894909100019030A9F491E0E8
:1000D000909300018FBF8FEF81B984B987B98AB936
:1000E00080E090E09C018F5F9F4F2F4F3F4F8BB977
:1000F00098B925B932B9F7CF8FBF0E9481000E940D
:1001000086000E9485000E948600FFCF81E090E07B
:0A011000F8940C948B00F894FFCFD4
:00000001FF
