:100000000C943E000C945B000C945B000C945B0021
:100010000C945B000C945B000C945B000C945B00F4
:100020000C945B000C945B000C945B000C945B00E4
:100030000C945B000C945B000C945B000C945B00D4
:100040000C945B000C945B000C945B000C945B00C4
:100050000C945B000C945B000C945B000C945B00B4
:100060000C945B000C945B000C945B000C945B00A4
:100070000C945B000C945B000C945B0011241FBE7D
:10008000CFEFD8E0DEBFCDBF12E0A0E0B1E0ECE4FE
:10009000FAE102C005900D92A632B107D9F722E02D
:1000A000A6E2B2E001C01D92A732B207E1F70E94BA
:1000B000A0000C94240D0C940000CF92DF92EF92DC
:1000C000FF920F931F93AC0152954295507F542796
:1000D000407F54279B01232F22952F703327242BF9
:1000E000352B892F82958F709927E0E0F0E07B0116
:1000F0006B016AEF7FE18F0141E0E217F307080728
:10010000190708F0412D4170403041F0DB01119793
:10011000F1F7EF5FFF4F0F4F1F4FEECFC7019F70FB
:1001200096012330910528F0880F991F04970197B5
:10013000F1F71F910F91FF90EF90DF90CF9008950E
:100140000E94A4000E941F0D2F923F924F925F9237
:100150006F927F928F929F92AF92BF92CF92DF92D7
:10016000EF92FF920F931F93CF93DF93CDB7DEB73C
:1001700026970FB6F894DEBF0FBECDBF8FB7F894A9
:1001800090912602903009F06CC191E09093260284
:100190008FBF1098089A1198099A8FE591E000E0B6
:1001A00010E01C0185E292E02816390681F0F10189
:1001B0008181982F9923A2F0803009F457C1682FCC
:1001C000772783E099E00E94CF0C580156C060E485
:1001D00072E48FE090E02FE531E02D833E833CC157
:1001E0008195682F782F770F770BCB01990F990B9B
:1001F000892F0E945B049B01AC0160E070E380E109
:1002000095E40E94DB08980140EC5FE30E94B90C82
:100210007B016C019801A8010E943104B82EB7013E
:10022000C6010E94BE044B01BB200AF08C01B7013D
:10023000C6012FEF3FEF59014FE75FE40E943904F9
:1002400018160CF05801B701C60100E010E0980143
:10025000A8010E94310488230AF08401B701C60175
:100260002FEF3FEF79014FE75FE40E943904181642
:10027000B7010CF0B80100E010E0C5010E943C0499
:100280006B837C8389839A8326E636E646E65FE3C2
:100290000E94B90C5B014C019801A8010E94310435
:1002A000F82EB501C4010E94BE042C01FF200AF003
:1002B0008B01B501C4012FEF3FEF39014FE75FE438
:1002C0000E94390418160CF03801B501C40100E091
:1002D00010E09801A8010E94310488230AF08201ED
:1002E000B501C4012FEF3FEF79014FE75FE40E94B2
:1002F00039041816C7010CF0C801D1016D012C9109
:100300003327220F331FF901E75BFE4FE080F180B6
:10031000B301970100E010E0A8010E94BF0C20ED9E
:1003200037E0A8010E94E30C59014A01B701C80156
:100330000E943C049B01AC01B80180E89FE30E944D
:10034000DB0820E034E244E759E40E94B90C2B01B9
:100350001C019801A8010E943104782EB201C1014C
:100360000E94BE047B0177200AF08C01B201C1011A
:100370002FEF3FEF39014FE75FE40E943904181671
:100380000CF03801B201C10100E010E09801A801B1
:100390000E94310488230AF08701C60102968D83EA
:1003A0009E83B201C1012FEF3FEF29014FE75FE4C8
:1003B0000E94390418160CF0280100E010E09801A2
:1003C00081E02A153B050805190508F4812D817087
:1003D000803099F4109A1198B201C30179010E94FA
:1003E0005D001098119AB201C3010E945D0097014F
:1003F0002F5F3F4F0F4F1F4FE3CF6B817C81898170
:100400009A812DEC3CEC4CEC5DE30E94B90C7B0135
:100410006C0100E010E09801A8010E943104B82EA0
:10042000B701C6010E94BE04BB200AF08B01B701D0
:10043000C60120E03FEF4FE757E40E943904181649
:100440006FEF7FEF0CF0B80100E010E0C80128EE7C
:1004500033E0A8010E94BF0C0E945D002D803E8009
:10046000A1CE8FBF80E091E06BE203C080E391E01A
:1004700069E170E00E9442020E941F0D0E941F0D60
:100480000E941F0D0E943E020E941F0D6FEF7FEF22
:10049000803061F0813041F08230CB0121F480E086
:1004A00090E061E070E0089560E070E0CB010895B5
:1004B000CF92DF92EF92FF920F931F938C01D8019E
:1004C000BF77E0E8FFE791E061307105AE07BF0755
:1004D00008F4912D917083E0903009F045C06801D7
:1004E0007A018A011F7791E0213031050E071F073D
:1004F00008F4912D9170903009F036C00A2B1B2B17
:10050000F901E62BF72BA0E0B0E081E0E030F10547
:100510000A071B0791E009F0912D91709030A70117
:10052000D60109F021C0FA01EA23FB2381E0FF2371
:100530000AF4812D81708030F1F0812D91E06217F5
:100540007307A407B5070CF0982F9170903061F4F1
:100550006227732796012E253F25262B372B81E016
:100560002030310509F082E01F910F91FF90EF904C
:10057000DF90CF900895812D91E0261737074A0725
:100580005B0714F7E2CF40E050E021E060307105F6
:100590008407950709F0212D2170203009F045C00E
:1005A0008030910509F044C09B0136952795262B94
:1005B000372BF901F695E795F695E795E22BF32BA6
:1005C000DF01B295A295AF70AB27BF70AB27AE2B02
:1005D000BF2B9D01232F33272A2B3B2B20953095B2
:1005E000F901F695E795E575F5752E1B3F0BF901B9
:1005F000E373F373369527953695279523733373F5
:100600002E0F3F1FD901B295A295AF70AB27BF70D7
:10061000AB27A20FB31FAF70BF70FD01EF2FFF27F5
:10062000EA0FFB1FF070709642C0BA019A018CC0AD
:100630009C0136952795282B392BF901F695E795DE
:10064000F695E795E22BF32BDF01B295A295AF70FB
:10065000AB27BF70AB27AE2BBF2B9D01232F3327BA
:100660002A2B3B2B20953095F901F695E795E575FA
:10067000F5752E1B3F0BF901E373F3733695279540
:1006800036952795237333732E0F3F1FD901B295EB
:10069000A295AF70AB27BF70AB27A20FB31FAF708F
:1006A000BF70FD01EF2FFF27EA0FFB1FF070E03056
:1006B00091F02E2F880F991FDB01AB2FA295AF7001
:1006C000BB27A695A695A6958A2B9B2B660F771F11
:1006D0002A95203079F79C01232F3327F295E29554
:1006E000F07FFE27E07FFE27EE0FFF1FEE0FFF1FBC
:1006F000EE0FFF1F2E1B3F0BFB01EF2FFF27982F45
:1007000088278E2B9F2BFC01E095F095762F66278E
:10071000DB01AB2FA295AF70BB27A695A695A6953A
:10072000AE23BF23FA01EA1BFB0B60407040672F2A
:1007300062956F707727669566956695680F791F45
:10074000241F351F2058314BC90108952F923F9225
:100750004F925F926F927F928F929F92AF92BF92D1
:10076000CF92DF92EF92FF920F931F93CF93DF937D
:10077000CDB7DEB726970FB6F894DEBF0FBECDBF5C
:10078000260145015C011B014B835C833901B701E4
:10079000C8010E94BF0C8B016C01B4014D825E82C6
:1007A000C2019101A5010E94BF0C5B017C01A00E5A
:1007B000B11EEC1CFD1C00E010E0B201C801930169
:1007C000A8010E94BF0C6B011C01B401C8014B8041
:1007D0005C809201A8010E94BF0CC60ED71E281E85
:1007E000391EC801881F991F89839A83B401C801E3
:1007F0009301A8010E94BF0C4B013C016D817E81D9
:10080000C8019201A8010E94BF0C6C0C7D1C621DE6
:10081000731D29813A81821F931F6A0D7B1D8E1DD6
:100820009F1D9401A30126960FB6F894DEBF0FBE5C
:10083000CDBFDF91CF911F910F91FF90EF90DF908F
:10084000CF90BF90AF909F908F907F906F905F9070
:100850004F903F902F9008950E9458020E944602A8
:1008600008950E942C0408950E9458020E94460296
:1008700008950E94340408950E94C30208950F93BE
:100880001F938C019B0180E090E0BC01621B730B05
:10089000800B910B412F542F55230AF0B9014423AB
:1008A0000AF0C8010E94C30200701078802B912BBF
:1008B0001F910F9108950E943F04089520E83FE39F
:1008C00041E0603071058207930708F0412D4170C7
:1008D00020E030E0403021F0A901B901CA010895BB
:1008E000E0E8FFE441E0603071058E079F0708F003
:1008F000412D4170403009F430C09B01232F332734
:10090000AC01542F4427422B532B5068929582956B
:100910008F7089279F7089279695879596958795DB
:1009200096958795EEE1E81BEF71762F6627E0300C
:1009300009F422C0769567959A01322F3295307F5F
:100940002227330F330F330F262B372BEA9556957B
:100950004795E030B90171F7C0CFE0E8FFE741E02B
:10096000613071058E079F0708F0412D403009F472
:10097000B3CF2FEF3FEFB0CF9B01AFCF0E945E040C
:1009800008952F923F924F925F926F927F928F9233
:100990009F92AF92BF92CF92DF92EF92FF920F930E
:1009A0001F93CF93DF93CDB7DEB766970FB6F8945A
:1009B000DEBF0FBECDBF69012B01FC01F295E295B0
:1009C000EF70EF27FF70EF27F695E795F695E7951F
:1009D000F695E795F07020E030E0EF87F88BEF5F59
:1009E000F040B90160407040BFEF0FEF1FEFA1E092
:1009F000E230FB076007710708F0A12DA170FA0132
:100A0000F295E295EF70EF27FF70EF27F695E795E7
:100A1000F695E795F695E795F070ED87FE87EF5F21
:100A2000F0404901B901604070409A0128273927F8
:100A3000207030782D8B3E8B5A014F7750707C019F
:100A40008C010F771070098B1A8BA030D20109F03E
:100A500018C19FEF81E0E230F907EFEFFFEF6E077B
:100A60007F0708F0812D8170803009F00AC1AB8BBF
:100A7000BC8B34016B827C8269827A82C601892FA9
:100A8000992740684B875C87FA01FE2FEE27E82BF9
:100A9000F92BED83FE83C986DA86D601BA2FAA2701
:100AA00023E333EF44E055E72A1B3B0B4E0B5F0B70
:100AB00049012A01B301C3015D011D012F8238865E
:100AC0006F01730183010E94BC0C9301261B370B3D
:100AD000A301480B590BB301C301540162010E94E9
:100AE000BC0C4B01880C991C452F42954F70552723
:100AF000469546954695842A952A880F991F672F13
:100B000062956F707727669566956695682B792B49
:100B10002B019401A201B301C30151012D803E803C
:100B200061010E94BC0CF301E61BF70BD301A80B7B
:100B3000B90B9401A201B301C3015F016D010E94D1
:100B4000BC0C4B01880C991C452F42954F705527C2
:100B5000469546954695842A952A880F991F672FB2
:100B600062956F707727669566956695682B792BE9
:100B70002B019401A201B301C301AF80B8846101CC
:100B80000E94BC0CF301E61BF70BD301A80BB90BB9
:100B90009401A201B301C3015F016D010E94BC0C6D
:100BA000FA01AB019A01220F331FEF2FE295EF708C
:100BB000FF27E695E695E6952E2B3F2B880F991F8C
:100BC000452F42954F705527469546954695482B9B
:100BD000592B225030404040504089899A89880FD3
:100BE000991FAB88BC88F501EF2FE295EF70FF27C6
:100BF000E695E695E695E82BF92BF160AA0CBB1C6F
:100C0000B301C3016F0143010E94BC0CDB01FC0175
:100C100020E031E081E0A030B105E207F30708F001
:100C2000812D81704F8558892D853E85421B530B40
:100C300074019701204030400B811C81040F151F67
:100C400089809A80821E931E803009F42CC06985A9
:100C50007A858B859C859D016F01AF015D010E94A6
:100C6000BF0CEB89FC89FE2FEE279701261B370B63
:100C7000E80BF90B01501040B40160407040D50101
:100C800040C08701B8017F7720E83FE781E0A130CD
:100C9000B1056207730708F4812D8170803009F473
:100CA00053C000649BC0B695A79558018F01102FC3
:100CB0001295107F0027110F110F110F0A2B1B2BFC
:100CC000F695E795B8016F01CF0129853A854B85E7
:100CD0005C850E94BF0CD8018501EB89FC89F295E7
:100CE000E295F07FFE27E07FFE27EE0FFF1FEE0F5D
:100CF000FF1FEE0FFF1F9701261B370BE80BF90BA9
:100D0000B40181E0003811056E057F050CF4812DDA
:100D10008170803039F00D891E8900681F6760E09E
:100D200070E05DC09FEF81E0023819074FEF5FEF81
:100D3000640775070CF0812D81708030C9F060E088
:100D400070E00D891E894BC0C5019F77790196011E
:100D5000E1E02130310597018207930708F4E12D86
:100D6000E170E03009F455C085010064B60137C078
:100D7000C6018F77907012950295107F1027007F23
:100D80001027000F111F000F111F000F111F082B3C
:100D9000192BEE0FFF1FA901452F42954F705527C4
:100DA0004695469546954E2B5F2B220F331F81E0CB
:100DB00069857A85621773072B853C85240735077B
:100DC00008F0812D81709070A80FB91F0E1D1F1D96
:100DD0000058104C8D899E89082B192BBD01C80124
:100DE00066960FB6F894DEBF0FBECDBFDF91CF91F0
:100DF0001F910F91FF90EF90DF90CF90BF90AF9039
:100E00009F908F907F906F905F904F903F902F902A
:100E10000895E1E0A030B1056207730709F0E12D04
:100E2000E170E03089F0A90121E0B6016030710580
:100E30008407950709F0212D21702030C50109F4A0
:100E400080C000EC1FE76BCF5A0141E0F601E030B3
:100E5000F1058207930709F0412D4170403009F0F8
:100E60006ECF41E0A030B10594016207730709F02D
:100E7000412D4170403009F069C041E0E030F1059A
:100E800094018207930709F0412D4170403009F029
:100E900042CF20E830E041E0A030B105620773079F
:100EA00008F0412D4170A0E0B0E0403069897A89B6
:100EB00009F45BC060301901710509F05AC0A20144
:100EC0009A0136952795242B352BA90156954795E0
:100ED00056954795422B532BFA01F295E295EF7008
:100EE000EF27FF70EF27E42BF52B9F01232F3327EC
:100EF0002E2B3F2B20953095A9015695479545758A
:100F00005575241B350BA9014373537336952795EB
:100F10003695279523733373240F351FA9015295F6
:100F200042954F7045275F704527420F531F4F7002
:100F30005F70FA01EF2FFF27E40FF51FF070709636
:100F400057C0807090780827192748CF21E0E030FB
:100F5000F105B4018607970709F0212D2170203093
:100F600009F4EFCE00EC1FE73ACF19018D01AD0176
:100F700063C09B0136952795262B372BA9015695E3
:100F8000479556954795422B532BFA01F295E295DA
:100F9000EF70EF27FF70EF27E42BF52B9F01232F36
:100FA00033272E2B3F2B20953095A9015695479539
:100FB00045755575241B350BA9014373537336953D
:100FC00027953695279523733373240F351FA90171
:100FD000529542954F7045275F704527420F531F2A
:100FE0004F705F70FA01EF2FFF27E40FF51FF070CD
:100FF00009E010E00E1B1F0BAD0140405040E85EC1
:10100000EF71E030C9F038019D0184017201660F73
:10101000771FD701AB2FA295AF70BB27A695A695DA
:10102000A6956A2B7B2BEE0CFF1CEA95E03079F736
:1010300027014801D9018301E1E096012030310503
:101040008205930508F0E12DE170E030698B7A8B21
:101050004B8A5C8A09F447C095012030310509F0BC
:1010600047C09601C90196958795822B932BBC01A9
:101070007695679576956795682B792BFB01F295A8
:10108000E295EF70EF27FF70EF27E62BF72BCF01EC
:10109000892F99278E2B9F2B80959095BC01769553
:1010A000679565757575861B970BBC0163737373C4
:1010B000969587959695879583739373860F971F5B
:1010C000BC01729562956F7067277F706727680F04
:1010D000791F6F707F70CB01892F9927860F971F1B
:1010E0009070409644C00B831C8349835A8360C030
:1010F000C90196958795822B932BBC0176956795B0
:1011000076956795682B792BFB01F295E295EF7048
:10111000EF27FF70EF27E62BF72BCF01892F9927B9
:101120008E2B9F2B80959095BC0176956795657564
:101130007575861B970BBC016373737396958795C2
:101140009695879583739373860F971FBC0172954D
:1011500062956F7067277F706727680F791F6F70C0
:101160007F70CB01892F9927860F971F9070FC0104
:10117000E950F040A040B040885E8F71803081F02F
:10118000AA0CBB1CB601672F62956F707727669516
:1011900066956695A62AB72ACC0CDD1C8A95EECFFB
:1011A000E00FF11FEB83FC83A41FB51FA983BA8353
:1011B000A501340163CC0E94C10408952F923F928F
:1011C0004F925F926F927F928F929F92AF92BF9257
:1011D000CF92DF92EF92FF920F931F93CF93DF9303
:1011E000CDB7DEB722970FB6F894DEBF0FBECDBFE6
:1011F0007A016901DC01AD01529542954F70452796
:101200005F7045275695479556954795569547954E
:10121000507000E010E01A014F5F5040F801E040CC
:10122000F0403FEF8FEF9FEF21E0423053074C013A
:10123000E807F90708F0212D2170F701F295E295F2
:10124000EF70EF27FF70EF27F695E795F695E79596
:10125000F695E795F0703F01EF5FF04000401040D9
:10126000C7018A279B278070907889839A832701FA
:10127000A7014F775070CD018F7790705C012030BF
:1012800009F06CC03FEF21E0E230F30708051905D3
:1012900008F0212D2170203009F060C080E090E03E
:1012A0007C01270147018B019601C901892F9927EC
:1012B000542F4427482B592B5068322F2227F501F1
:1012C000E068B701C70158016F0187010E94BC0C9B
:1012D000620C731C640C751CD3018E1C9F1CFC01DA
:1012E000E078F070012D11E000300007EE05FF05F9
:1012F00009F0102F1170103009F444C0AF57B040FE
:10130000840100401040FA017F01EE0CFF1CA9018E
:10131000452F42954F7055274695469546954E293F
:101320005F296D01880F991FDB01AB2FA295AF706C
:10133000BB27A695A695A695A82BB92B660F771F58
:10134000EF2FE295EF70FF27E695E695E695E62B01
:10135000F72B7F01F601220F331F1CC09D013F7741
:1013600080E89FE7E1E08B01013011057C0128074F
:10137000390708F4E12DE170E030B60109F43DC011
:10138000A0643FC1FD01EE57F040840100401040D1
:101390007B01DC0181E0EF3FF10560E070E00607D2
:1013A00017070CF4812D8170803039F0A981BA8142
:1013B000A068BF6700E010E024C181E060E070E059
:1013C0006E177F0760077107B8010CF4812D8170DB
:1013D0008030870109F042C0AF77B070F295E29596
:1013E000F07FFE27E07FFE27EE0FFF1FEE0FFF1FAF
:1013F000EE0FFF1FEA2BFB2BDBC0C2019F77E1E062
:101400006130710547018805990508F4E12DE17007
:10141000E03021F0D201A0648B01F3C0E1E00030A4
:10142000110547012805390509F0E12DE170E0308B
:1014300009F430C021E060307105AC0180E090E03B
:101440004807590709F0212D2170203009F06EC19D
:10145000C20180709078A827B927D3C0780101E035
:1014600010E03F010E1B1F0BE0E0F0E0CB01BF01DD
:10147000680B790B81E0003211056E077F0708F0D9
:10148000812D8170803009F022C000E010E0A98138
:10149000BA81B7C0E1E0603071058E059F0509F0A3
:1014A000E12DE170E03009F4C7C041E000301105E2
:1014B00000E010E02007310709F0412D4170403075
:1014C00009F037C1A070B078A425B525A5CF480193
:1014D000C301815E9F4F80305901BA01A1F0E82F0E
:1014E0005901BA01660F771F8501012F02950F7010
:1014F0001127069506950695602B712BAA0CBB1C2F
:10150000EA95E03079F78030870168017D0199F034
:1015100068017D01EE0CFF1CF601EF2FE295EF70E4
:10152000FF27E695E695E695EE2AFF2ACC0CDD1C12
:101530008A95803079F7C4018030C301B1F08A9573
:10154000839591E0803009F0912D36952795FA0129
:10155000FE2FF295F07FEE27FF0FFF0FFF0F2E2BD0
:101560003F2B56954795913059F72C293D292A292B
:101570003B294E295F29462B572BC4018030B9F0F7
:10158000F301EA95E39581E0E03009F0812D1695AD
:101590000795BD01762F7295707F6627770F770FBD
:1015A000770F062B172BB695A795813059F7FD01BC
:1015B000DF0180E090E861E02130310548075907FC
:1015C00008F4612D6170E981FA81AE2BBF2B603088
:1015D00029F00F5F1F4FAF4FBF4F13C061E02030A6
:1015E00031054807590709F0612D6170603049F0F5
:1015F000C80181709070080F191F80E090E0A81F4B
:10160000B91FB801CD0122960FB6F894DEBF0FBE08
:10161000CDBFDF91CF911F910F91FF90EF90DF90A1
:10162000CF90BF90AF909F908F907F906F905F9082
:101630004F903F902F9008954C0181E000301105AC
:1016400060E070E02607370709F0812D8170803057
:10165000B60109F01ACF81E06030710560E070E0FA
:10166000F401E607F70709F0812D8170803009F059
:101670000CCF60E870E081E00030110526073707E5
:1016800008F0812D8170A0E0B0E08030E9E0F0E06A
:10169000960109F451C095012030310509F04EC082
:1016A000C80196958795802B912B9C01369527959F
:1016B00036952795282B392BDB01B9017295629558
:1016C0006F7067277F706727622B732BCB01892F81
:1016D0009927862B972B960180959095BC0176953E
:1016E000679565757575861B970BBC01637373737E
:1016F000969587959695879583739373860F971F15
:10170000BC01729562956F7067277F706727680FBD
:10171000791F6F707F70CB01892F9927860F971FD4
:10172000BD01A0E0B0E0907040964CC0A0ECBFE7D7
:1017300041CEA0ECBFE765CF7D0161C0C9019695A0
:101740008795822B932B9C01369527953695279567
:10175000282B392BDB01B901729562956F706727D1
:101760007F706727622B732BCB01892F9927862BDC
:10177000972B960180959095BC0176956795657538
:101780007575861B970BBC0163737373969587956C
:101790009695879583739373860F971FBC017295F7
:1017A00062956F7067277F706727680F791F6F706A
:1017B0007F70CB01892F9927860F971FBD01A0E06D
:1017C000B0E090707F01E81AF90AA040B040885E4E
:1017D0008F718030A1F02B01AA0CBB1CB801672FC0
:1017E00062956F707727669566956695A62AB72AE3
:1017F000000F111F8A95803079F79601B20181E0C0
:10180000203031058606970608F0812D81708030E2
:1018100009F448C04030510509F047C0C901969508
:101820008795822B932BBC01769567957695679566
:10183000682B792B2F01FB01F295E295EF70EF27D2
:10184000FF70EF27E62BF72BCF01892F99278E2BDF
:101850009F2B80959095BC017695679565757575FC
:10186000861B970BBC01637373739695879596954A
:10187000879583739373860F971FBC01729562954A
:101880006F7067277F706727680F791F6F707F7091
:10189000CB01892F9927860F971F20E030E09070A9
:1018A000409645C027014D0160C0CA0196958795B5
:1018B000842B952BBC017695679576956795682B5B
:1018C000792B2F01FB01F295E295EF70EF27FF7066
:1018D000EF27E62BF72BCF01892F99278E2B9F2BF4
:1018E00080959095BC017695679565757575861B95
:1018F000970BBC016373737396958795969587953F
:1019000083739373860F971FBC01729562956F70F6
:1019100067277F706727680F791F6F707F70CB0113
:10192000892F9927860F971F20E030E09070481A82
:10193000590A204030404901885E8F7196018030FD
:1019400081F0440F551FB901672F62956F7077279B
:10195000669566956695462B572B220F331F8A9501
:10196000EECF4E0C5F1C8A1E9B1E80E090E07C0137
:101970009CCC0E94DE0808950E94A6030895DB0116
:101980008F939F930E94050DBF91AF91A29F800DF1
:10199000911DA39F900DB29F900D11240895AA1B35
:1019A000BB1B51E107C0AA1FBB1FA617B70710F04A
:1019B000A61BB70B881F991F5A95A9F7809590957C
:1019C000BC01CD010895A1E21A2EAA1BBB1BFD018B
:1019D0000DC0AA1FBB1FEE1FFF1FA217B307E4070E
:1019E000F50720F0A21BB30BE40BF50B661F771F66
:1019F000881F991F1A9469F7609570958095909546
:101A00009B01AC01BD01CF0108950E94100DA59F5F
:101A1000900DB49F900DA49F800D911D11240895E9
:101A2000A29FB001B39FC001A39F700D811D11241F
:101A3000911DB29F700D811D1124911D089581E0AB
:0C1A400090E0F8940C94240DF894FFCF73
:101A4C0063616C6C656420604F7074696F6E3A3AB8
:101A5C00756E77726170282960206F6E206120602E
:101A6C004E6F6E65602076616C756500000000003D
:101A7C00617474656D707420746F20646976696428
:101A8C0065206279207A65726F9302EE010B024B2E
:101A9C00022800BA025000100300009F013F03000F
:101AAC0004010802080304020801080404040802E3
:101ABC000800040308020801FC02080304000402E5
:101ACC00040404040804040108020803FC050806C5
:101ADC00040708050800FC020800040308020801BA
:101AEC0004010802080304000402040404040408AA
:101AFC000400040108020803040208010804040499
:101B0C0008020800040308020801FC020803040090
:101B1C000402040404040804040108020803FC057C
:101B2C000806040708050800FC0208000403080264
:101B3C00080104010802080304000402040404045C
:101B4C000408040002020203020102020204020958
:101B5C00020104080800020202030201020204004E
:061B6C000406020A02005B
:00000001FF
