:100000000C943E000C945B000C945B000C945B0021
:100010000C945B000C945B000C945B000C945B00F4
:100020000C945B000C945B000C945B000C945B00E4
:100030000C945B000C945B000C945B000C945B00D4
:100040000C945B000C945B000C945B000C945B00C4
:100050000C945B000C945B000C945B000C945B00B4
:100060000C945B000C945B000C945B000C945B00A4
:100070000C945B000C945B000C945B0011241FBE7D
:10008000CFEFD8E0DEBFCDBF11E0A0E0B1E0E8E205
:10009000F1E002C005900D92A030B107D9F721E040
:1000A000A0E0B1E001C01D92A130B207E1F70E94CB
:1000B0005D000C9492000C9400000E9461000E946C
:1000C0008D008FB7F894909100019030C1F491E0C9
:1000D000909300018FBF83E081B91AB88FEF9FE042
:1000E00022E039B1FC013197F1F749B14323447063
:1000F0004695342F3695342B322732B9F2CF8FBF45
:100100000E9484000E948D000E9488000E948D0041
:100110000E948C000E948D00FFCF81E090E0F89457
:080120000C949200F894FFCF4B
:00000001FF
